:020000040800F2
:1000000098060020ED010008B7310008312A0008E9
:10001000B5310008690900088F39000800000000A8
:100020000000000000000000000000004134000853
:100030006B09000800000000B931000843340008D3
:10004000070200080702000807020008070200086C
:10005000070200080702000807020008070200085C
:10006000070200080702000807020008070200084C
:10007000070200080702000807020008070200083C
:10008000070200080000000007020008070200083D
:10009000070200080702000807020008070200081C
:1000A000ED34000805350008F9340008070200089F
:1000B00007020008113500080702000807020008BF
:1000C00007020008070200080702000807020008EC
:1000D00007020008070200080702000807020008DC
:1000E00007020008070200080702000807020008CC
:1000F00007020008070200080702000800000000CD
:1001000000000000070200080000000007020008CD
:1001100007020008000000000702000807020008AC
:10012000070200080702000807020008070200088B
:10013000070200080000000000000000070200089D
:10014000070200080702000800000000000000008D
:10015000000000000000000000000000000000009F
:10016000000000000000000000000000070200087E
:10017000070200080000000000000000000000006E
:10018000000000000702000800000000000000005E
:10019000000000000000000000000000000000005F
:1001A000000000000000000007020008070200082D
:1001B000070200080702000807020008000000000C
:1001C000000000000702000800000000000000001E
:1001D0000702000807020008DFF80CD000F07AFBE5
:1001E00000480047B93900089806002006488047B3
:1001F00006480047FEE7FEE7FEE7FEE7FEE7FEE70C
:10020000FEE7FEE7FEE7FEE7DD340008D90100085F
:10021000D2B201E000F8012B491EFBD27047002248
:10022000F6E710B513460A4604461946FFF7F0FFF5
:10023000204610BD2DE9FE4F804681EA0300C00F25
:100240000C46009021F0004123F00045B8EB02007D
:10025000A94105D24046214690461C460B4602461F
:1002600023F00040104347D0270DC7F30A00C3F323
:100270000A510290401A019040286BDAC3F3130030
:1002800040F4801B0098924620B10023D2EB030A71
:1002900063EB0B0B01985946C0F14002504600F049
:1002A00023FA06460D4650465946019A00F03BFA9D
:1002B00010EB08006141002487EA115284EAE773D9
:1002C0001A4340D0009A62B3019A012A4FEA0752BA
:1002D00015DC001B61EB02014FF0004202EA0752FD
:1002E000CDE90042001C41F5801132462B4600F05A
:1002F00072FA03B0BDE8F08F40462146F9E7001BD3
:1003000061EB0201001C41F5801300185B412018CD
:10031000A2F5001747EB030140EAD570B6196D410D
:1003200011E06D084FEA360645EAC0754FEA0752FC
:10033000001B61EB0201001C41F5801149084FEAE6
:1003400030000019514132462B4603B0BDE8F04F52
:1003500000F032BA0098012240000023D0EB0202E4
:1003600063EBE073009821464FEAE074B8EB0000BD
:1003700061EB0401E9E783F000435BE781F00041B2
:1003800058E72DE9FE4F81EA030404F0004421F010
:10039000004100944FF0000B23F0004350EA0104A9
:1003A0005ED052EA03045BD0C3F30A54C1F30A558A
:1003B0002C44A4F2F3340194A0FB0254C1F31301C2
:1003C00041F48011C3F3130343F4801301FB02448F
:1003D00000FB034E840A970A44EA815447EA835794
:1003E000A4FB076802958D0A05FB07854FEA932C4D
:1003F00004FB0C542705029D4FEA065847EA1637BE
:10040000B5EB08056EEB070C870E920E47EA8117D5
:1004100042EA8312A7FB0201B6EB0B0164EB000476
:100420002B0D43EA0C335E1844EB1C50DA46514660
:10043000E7FB0201C5F313044FEA0B3343EA1453FD
:100440004FEA0432019C43EA0603A4F10C0402942F
:10045000009CCDE900B400F0BEF903B0BDE8F08F18
:1004600000200146F9E72DE9F04D81EA030404F08C
:10047000004B21F0004514464FF0000A23F00041E4
:1004800050EA050220D054EA01021DD0C5F30A57F4
:100490000246C5F31303C1F31300C1F30A5640F437
:1004A000801543F48013A7EB0608101BD64608F20C
:1004B000FD3873EB050002D308F1010801E0921842
:1004C0005B41B8F1000F03DA00200146BDE8F08D72
:1004D00000204FF48011064684460EE0171B73EB94
:1004E000050705D3121B63EB050306434CEA010C19
:1004F00049084FEA300092185B4150EA0107EDD1FC
:1005000052EA030012D082EA040083EA050108439C
:1005100005D0101BAB4106D20122002306E00022C9
:100520004FF0004302E06FF0010253101AEB060097
:100530004CEB085110EB0A0041EB0B01BDE8F04D0C
:1005400000F03AB930B5041E71F1000404DB4FF03D
:100550000044404264EB0101141E73F1000405DB0A
:100560001C464FF00043524263EB0403801A99414A
:1005700001D3012030BD002030BD30B5041E71F123
:10058000000404DB4FF00044404264EB0101141E00
:1005900073F1000405DB1C464FF00043524263EB4D
:1005A0000403101A8B4101D3012030BD002030BD5F
:1005B0000EB540F2334102910021CDE900110A4607
:1005C0000B4600F008F903B000BDC1F30A5210B5A4
:1005D000C1F3130140F2FF3341F480119A4201DA72
:1005E000002010BD40F233439A42A2F2334203DCB2
:1005F000524200F088F810BD904010BD00F000425B
:1006000030F000400AD0C10D01F56071C0F3160052
:1006100042EA0151C20840071143704700200146D9
:10062000704701F0004330B421F0004150EA01026C
:1006300006D00A0DA2F56072C1F31301002A02DC94
:1006400030BC00207047440F44EAC104C100E018E8
:1006500030BC00EBC25000F078B830B50B46014614
:1006600000202022012409E021FA02F59D4205D351
:1006700003FA02F5491B04FA02F52844151EA2F1FB
:100680000102F1DC30BD2DE9F05F05460020924605
:100690009B4688460646814640241BE02846414644
:1006A0004746224600F02FF853465A46C01A914159
:1006B00010D311461846224600F016F82D1A67EBA3
:1006C00001084F4622460120002100F00DF817EBEB
:1006D00000094E41201EA4F10104DFDC48463146EA
:1006E0002A464346BDE8F09F202A04DB203A00FA60
:1006F00002F1002070479140C2F1200320FA03F379
:10070000194390407047202A04DB203A21FA02F076
:100710000021704721FA02F3D040C2F1200291403B
:10072000084319467047202A06DBCB17203A41FAC6
:1007300002F043EAE07306E041FA02F3D040C2F16E
:10074000200291400843194670470029A8BF70470E
:10075000401C490008BF20F00100704710B4B0FAF7
:1007600080FC00FA0CF050EA010404BF10BC704792
:1007700049B1CCF1200421FA04F411FA0CF118BFAC
:10078000012121430843A3EB0C01CB1D4FEA00617B
:100790004FEA102042BF002010BC704700EBC3504E
:1007A00010440029A4BF10BC7047401C490008BF7A
:1007B00020F0010010BC704710B5141E73F1000446
:1007C00008DA401C41F1000192185B411A4301D143
:1007D00020F0010010BD2DE9F04D92469B4611B16D
:1007E000B1FA81F202E0B0FA80F220329046FFF7CF
:1007F0007BFF04460F4640EA0A0041EA0B015346DC
:100800005A46084313D0114653EA010019D0C8F1E3
:1008100040025046FFF777FF05460E4650465946C0
:100820004246FFF761FF084305D0012004E020465F
:100830003946BDE8F08D0020054346EAE0762C43BA
:1008400037430A986305E40AA0EB08000022FD0A7A
:1008500044EA47540A3002D500200146E9E7010581
:1008600010196941DDE9084500196941BDE8F04DFD
:10087000A2E7C1F30A52C1F3130140F2FF3341F47E
:1008800080119A4202DA00200146704740F2334359
:100890009A42A2F2334202DC5242FFF734BFFFF722
:1008A00023BF000030B5041E71F1000404DB4FF0DB
:1008B0000044404264EB0101141E73F1000405DBA7
:1008C0001C464FF00043524263EB0403994208BFB9
:1008D000904230BD064C074D06E0E06840F0010351
:1008E00094E8070098471034AC42F6D3FFF778FC41
:1008F000686100088861000870B504460068816876
:10090000C9072DD1174E816806F17F02114209D027
:10091000E06D40F01000E065206E40F001002066C0
:10092000012070BD8168314041F00101816000F01B
:1009300037FC054620680168C90711D18168C907DD
:1009400004D18168314041F00101816000F028FC50
:10095000401B0328EED320680068C007EAD1D7E720
:10096000002070BDC0FFFF7FFEE77047EFF31080EF
:1009700072B6FEE7F8B504460020009094F85800DF
:10098000012801D102208CE101200F4684F8580093
:1009900020688168490726D4D7E900121F2602F093
:1009A0001F03C2F3012200EB82029E40156BC1F3CC
:1009B0008461994025EA06063143116381688268A3
:1009C000D20842EA9101C90740F0AA80BA683968A2
:1009D000B2F1004F0DD1002202F002FA2068416905
:1009E00041F000410BE0E06D40F02000E0650120A7
:1009F00054E102F0F5F92068416921F000414161BC
:100A0000D7E90412C36804295FD1016E066E3B6802
:100A1000A64A1946C3F3846E93FAA3F39446B3FA35
:100A200083F56FF3DF412B46002908BF7346C6F3F9
:100A300084669E420CD1016E21F0004101663B6844
:100A400003EA0201C3F3846E93FAA3F3B3FA83F5C6
:100A5000436E00292B4608BF7346466EC6F3846674
:100A60009E420DD1416E21F00041416661463B68D6
:100A700003EA0C01C3F3846E93FAA3F3B3FA83F58C
:100A8000836E00292B4608BF7346866EC6F38466C4
:100A90009E420CD1816E21F0004181663B6803EAE1
:100AA0000C01C3F3846E93FAA3F3B3FA83F5C36E18
:100AB000002908BF7546C16EC1F38461A94202BF17
:100AC000C16E21F00041C1662AE000F16005D7F84F
:100AD00000C0754E55F821E00EEA060E062606EA1D
:100AE00093039A400CF0F8431A4342EA0E0242F094
:100AF000004245F821203969BA6955F8213023F0C0
:100B000080731A4345F821203A69397F55F822301D
:100B1000012923F0007308BF03F1007345F8223068
:100B20008168C90767D1D7F800C0FA685F49D0F873
:100B3000B060634602F018056FF3DF43E9409E435F
:100B400019403143C0F8B01059498A4253D19CFA38
:100B5000ACF1002B4FEA9C66B1FA81F2114608BF56
:100B60004FEA9C61013101F01E0109290DD8D3B172
:100B7000511C4FF0806606EB826201F01F030121D9
:100B8000994002F0F842114319E0EBB1511C4FF0CB
:100B9000806606EB826201F01F030121994002F09A
:100BA000F84211431CE00CF0F842711C02F1806223
:100BB00001F01F030121994002F0F842114303EBB9
:100BC000430241EA025113E00CF0F842711C02F1B9
:100BD000806201F01F030121994002F0F8421143A5
:100BE00003EB4302334B03EB0252114341F000711C
:100BF000BA6802F0F5F83B682F4803424DD02F4900
:100C00002F480E68834206F0E07202D02D488342DE
:100C10001ED1300241D42068B0F1A04F3DD1086808
:100C200020F0E070104340F4000008609B489C49AD
:100C30000068B0FBF1F00C2100EB400001EB8000FC
:100C400001E000980138009000980028F9D124E0D4
:100C50001D48834208BF16F0807012D01B4D002043
:100C6000AB4208BF16F4800318D12068A1F50273C7
:100C7000984212D0086820F0E070104340F48000E1
:100C80000AE02068A1F50273984206D0086820F0B7
:100C9000E070104340F0807008600020002184F86C
:100CA000581001B0F0BD00BF00F0FF03FFFF0700C8
:100CB00000007F40000020FE000008800803005074
:100CC000000021C31000C090000052C7000084CB78
:100CD0000068006C70470000BCB504460020002C82
:100CE000019037D0E06D30B9204600F0E1F80020E7
:100CF00084F85800206621688868800003D58868D9
:100D0000654A104088608868C00016D4624A8868C6
:100D100002F180521040624A40F0805088605F4883
:100D20000068B0FBF2F0022202EB400001E0019803
:100D30000138019001980028F9D18868C0000BD4CF
:100D4000E06D40F01000E065206E40F0010020668C
:100D5000012002E001209CE000208A68C2F38002AA
:100D6000E36D03F01003D218E26D03D042F01001DE
:100D700001208DE022F481720232E2658A68D20796
:100D80000ED1484D2B68D5F800211A43D20707D160
:100D90006268D5F8003323F47C131A43C5F80023A6
:100DA000627FE36B43EA4232D4E902352A431A43B5
:100DB00094F8243042EA0342012B04D1A36A3A4D4D
:100DC00005EB43431A43E36A23B103F478731A43F0
:100DD000236B1A43CB68354D2B401A43CA600A690E
:100DE000636B22F040621A430A618A688B68DB08F1
:100DF00043EA9202D2073DD194F8383094F81CC0EF
:100E0000CD6844F202025B0025EA020243EA8C3319
:100E10001A43CA6022690B694AB143F4803343F62E
:100E2000FF750B61D1F8C030AB431A4307E023F4E0
:100E3000803243F6FF730A61D1F8C0209A43C1F8AB
:100E4000C02094F840300A69012B10D140F2FD73A4
:100E500022EA030CD4E91135D4E9132E43EA0C033A
:100E60002B431A4342EA0E0242F0010201E022F053
:100E700001020A6163690A6B22F00F02012B02BFB3
:100E8000236A013B1A430A63E16D012262F3010107
:100E9000E16502B0B0BD00BFC0FFFF5F18000020D9
:100EA000400D0300080000500000FEFF0740F0FF67
:100EB00010B586B0044601A81421FFF7B0F92068E8
:100EC000464988421DD11048016841F40051016033
:100ED000016801F4005100910099016841F002019C
:100EE000016001A9006800F0020000900098002055
:100EF0000390032002904FF400400190034800F05B
:100F000081F806B010BD00BF4C100240000400483C
:100F100070B5324D0446D5F8086200688068400715
:100F200003D494F85800012801D1022070BD01209B
:100F300084F858002046FFF7DFFC18B1002184F840
:100F4000581070BD2068E16D40F6017306F01F0275
:100F50009943A84201F58071E165014608BF4FF051
:100F6000A0410AB1814203D1E36D23F48013E3650C
:100F7000E36D0026DB0444BF266E26F006062666D7
:100F80001C2681424FF00003066084F8583008D0D8
:100F9000092A15D8012303FA02F240F221231A424A
:100FA0000ED0C168890104D5E16D012262F30D31D3
:100FB000E16581680A4A114004318160002070BDFA
:100FC000E06D40F48010E065C8688001F6D5E06D02
:100FD000012161F30D30E065F0E700BF0001005032
:100FE000C0FFFF7FB0B5044600F0DAF805468A4836
:100FF000611C406818BF044400F0D2F8401BA042B6
:10100000FAD3B0BD2DE9F84F5A4A4FF006094FF018
:10101000000B4FF0010A4FF0000C904200F13842F3
:1010200008BF4FF005094FEAB223052B38BF4FEA3E
:10103000B22900220D6835FA02F408BFBDE8F88F26
:101040000AFA02F415EA040800F086804D68122DB1
:1010500000F288800AFA05F717F0061F00F0828078
:101060000323D0F808E0CE6803FA0CF72EEA070352
:1010700006FA0CF66FEA070E570033438360C5F398
:10108000001346689340A64333434360C3688E68A9
:1010900003EA0E03BE403343C36045F01003122B36
:1010A00011D10BF01C030F2404FA03F66FF00304B4
:1010B00004EA520505442C6AB4430E6906FA03F3A8
:1010C00023432B624D68046805F00303BB4004EA28
:1010D0000E073B430360EB003ED5294B264C294DC0
:1010E0000BF00C061F461B68AE4643F001033B6045
:1010F0003B6803F00103009322F00303009F2344A5
:101100005F590F25B54009FA06F6AF43374343F858
:101110000E7023684E6843EA0807F50358BF23EAB8
:1011200008072760B503636843EA080758BF23EA46
:1011300008076760F502A36843EA080758BF23EA77
:1011400008070E4BA760B6021D461B6843EA080756
:1011500058BF23EA08072F600BF1040B0CF1020CB7
:10116000013267E70323674603FA0CF46FEA040EC3
:101170008CE700BF00140048000401400C0401404B
:101180006010024008FCFFFF0069084018BF012002
:1011900070471823002A08BF2823C1507047000059
:1011A00005480068704700BF1B48034940680A684B
:1011B00010440860704700BF9402002080B50320EF
:1011C00000F072F8002000F007F808B1012080BD9F
:1011D00000F024F8002080BD70B50F4E0446706802
:1011E000B0B14FF47A71B1FBF0F060490968B1FB1E
:1011F000F0F000F027FD01250F2C0AD848B94FF078
:10120000FF3021460022002500F030F8346000E075
:101210000125284670BD00BF0C00002082B00B489D
:10122000816841F001018160816801F00101019153
:101230000199016841F080510160006800F0805020
:101240000090009802B000F095B800BF581002401E
:10125000002808DB00F01F010122400902FA01F119
:10126000014A42F82010704700E100E080B5144BBD
:101270001B68C3F3022CBCF1030E8CF007034FF084
:10128000FF3C38BF4FF0000E042B28BF04230CFA9C
:1012900003F399430CFA0EF301FA0EF19A4311434A
:1012A000BDE8804002F074BB05494FF6FF030A68B1
:1012B0001A4060F30A22034810430860704700BFD9
:1012C0000CED00E00000FA0520B3B949B0F5007F4D
:1012D0000A6845D1D1F8800040F48070C1F88000E0
:1012E00002F4C060B0F5806F3ED10868012262F35D
:1012F0004A20322208601D48006850431C4AB0FB57
:10130000F2F0C0434A6918B1013012F48062F9D199
:10131000486920E0A6480168D0F8802001F4C06147
:1013200022F48072B1F5806FC0F880201CD1016872
:10133000012262F34A21322201600C4909685143BB
:101340000B4AB1FBF2F1C943426919B1013112F400
:101350008062F9D14069400544BF0320704703E033
:10136000022060F34A220A60002070471800002023
:1013700040420F000248016841F48041016070471B
:10138000087000402DE9FC4104468078874E000734
:1013900001D400205DE0F06CC0000BD4F06C4FF085
:1013A000010840F08050F064F06C00F08050019033
:1013B000019801E04FF000087D4F386840F48070DC
:1013C0003860FFF7EDFE05463868C00506D4FFF724
:1013D000E7FE401B0228F7D9032033E0D6F884004B
:1013E00010F4407025D0216C884211D0D6F88400CA
:1013F000D6F8841041F4803120F44070C6F884108F
:10140000D6F8841021F48031C6F88410C6F8840020
:10141000C0070ED0FFF7C4FE054641F28837D6F864
:101420008400800705D4FFF7BBFE401BB842F6D905
:10143000D2E7D6F88400216C20F440700843C6F847
:1014400084000020B8F1000F1EBFF16C21F0805124
:10145000F1642168CA0705D0F26F636822F00302C5
:101460001A43F2678A0705D5F26FA36822F00C02CF
:101470001A43F2674A0705D5F26FE36822F030029B
:101480001A43F2670A0705D5F26F236922F0C002FA
:101490001A43F2678A0605D5F26F636922F4406247
:1014A0001A43F2674A0605D5F26FA36922F4405247
:1014B0001A43F2670A0605D5F26FE36922F4404247
:1014C0001A43F267CA0505D5F26F236A22F4403247
:1014D0001A43F2678A0505D5F26F636A22F4402247
:1014E0001A43F2674A050DD5F26FA36A22F440123F
:1014F000B3F5801F42EA0302F26702BF326842F48A
:10150000801232600A050DD5F26FE36A22F44002C0
:10151000B3F5800F42EA0302F26702BF326842F479
:1015200080123260CA040DD5F26F236B22F0407234
:10153000B3F1807F42EA0302F26702BF326842F4ED
:10154000801232608A040DD5F26F636B22F0406224
:10155000B3F1006F42EA0302F26702BF326842F45D
:10156000801232604A040DD5F26FA36B22F0406204
:10157000B3F1006F42EA0302F26702BF326842F43D
:101580008012326009040DD5F16FE26B21F04051F9
:10159000B2F1805F41EA0201F16702BF316841F4B4
:1015A0008031316002B0BDE8F08100BF0C10024014
:1015B000007000402DE9F047002854D0724B0446DB
:1015C0000D46186800F00F00884209D2186820F014
:1015D0000F0028431860186800F00F00A84242D19D
:1015E0002068864E9A46C107B14602D14FF00008E6
:1015F0006BE06168032930D156F8081C890132D5A7
:101600007168726873687768B4460226C7F34167E9
:1016100001F0030106EB4707794E032904BF43F2AB
:101620000066C0F26E16C2F30311C3F30622013145
:10163000B6FBF1F15143554AB1FBF7F1914224D980
:10164000DCF80010664611F0F00F16D0800701D5C7
:10165000A06890B14FF000081AE056F8080C022973
:1016600004D1800304D40120BDE8F0874005FAD5F9
:1016700000F094F845498842ECD9306808214FF0D1
:10168000800861F30710306002E04FF00008664602
:101690003068616820F0030008433060FFF780FD88
:1016A000064641F288374846D9F80000616800F0E4
:1016B0000C00B0EB810F05D0FFF772FD801BB84224
:1016C000F1D939E020684E465346810706D4B8F177
:1016D000800F16D1316821F0F00111E0410742BFBF
:1016E000316841F4E0613160010704D531680722B7
:1016F00062F30D2131603168A26821F0F0011143DD
:101700003160196801F00F01A9421AD9186820F058
:101710000F0028431860FFF743FD064641F2883763
:101720005046DAF8000000F00F00A84207D0FFF79B
:1017300037FD801BB842F3D90320BDE8F08720684D
:101740004E46410705D53168E26821F4E061114356
:101750003160000706D53068216920F4605040EA06
:10176000C100306000F01AF83168094AC1F3031172
:10177000515C01F01F01C840064908600648006836
:10178000BDE8F047FFF728BD0020024000B4C404C4
:10179000DC4E0008180000200C0000201749184AF1
:1017A000086800F00C000428104608BF704708685D
:1017B00000F00C031348082B1ED00B6803F00C0339
:1017C0000C2B1CBF002070474B6803F00303032B56
:1017D00008BF02464868C0F303100130B2FBF0F0C6
:1017E0004A68C2F30622496850430222C1F34161AC
:1017F00002EB4101B0FBF1F0704700BF081002405E
:101800000024F40000366E012DE9FC41002800F0B0
:10181000AA8104460078DF4EC0071ED120788007D9
:1018200047D42078000740F19A806169D6F8940087
:10183000002900F0838040F00100C6F89400FFF713
:10184000AFFC0546D6F89400800700F18880FFF7CA
:10185000A7FC401B0228F5D9C9E0B168F06801F087
:101860000C0108294BD0032281F00C0122EA000070
:101870000844B0FA80F0400941D16768B7F5803F6D
:1018800007D03068B7F5A02F40F0CC8040F480201E
:101890003060306840F480303060FFF781FC0546EE
:1018A00030688003BAD4FFF77BFC401B6428F7D96B
:1018B0009DE0B068F16800F00C00042828D001F029
:1018C000030180F00C0081F002010844B0FA80F0BE
:1018D00040091DD1E1683068002900F08A8040F499
:1018E00080703060FFF75CFC05463068400500F111
:1018F0009180FFF755FC401B0228F6D977E030684D
:1019000080037FF58BAF606800287FF487AF2AE102
:101910003068400503D5E068002800F02481706835
:10192000216920F0FE4040EA01607060C048006814
:10193000FFF752FC002840F0168172E720F001000A
:10194000C6F89400FFF72CFC0546D6F894008007F3
:1019500005D5FFF725FC401B0228F6D947E0207883
:10196000400740F19A80B06DC0000BD4B06D4FF0CD
:10197000010840F08050B065B06D00F080500190DB
:10198000019801E04FF00008AA4F3868C0050FD455
:10199000386840F480703860FFF702FC054638680C
:1019A000C00505D4FFF7FCFB401B0228F7D91EE059
:1019B000A768012F07D0D6F89000052F4AD140F034
:1019C0000400C6F89000D6F8900040F00100C6F878
:1019D0009000FFF7E5FB054641F28837D6F8900006
:1019E000800753D4FFF7DCFB401BB842F6D9032035
:1019F000BAE020F480703060FFF7D2FB0546306813
:101A000040057FF50EAFFFF7CBFB411B03200229FA
:101A1000F5D9A9E07068216920F0FE4040EA016034
:101A20007060FEE620F480303060306820F4802062
:101A30003060FFF7B5FB0546002F7FF431AF30680B
:101A400080037FF5EBAEFFF7ABFB411B032064295E
:101A5000F5D989E020F00100C6F89000D6F8900092
:101A600020F00400C6F89000FFF79AFB0546002F0F
:101A7000B2D141F28837D6F89000800706D5FFF73B
:101A80008FFB411B0320B942F5D96DE0B8F1000F7F
:101A90001EBFB06D20F08050B0652078800627D53D
:101AA000A169D6F8980089B140F00100C6F8980005
:101AB000FFF776FB0546D6F89800800718D4FFF7A5
:101AC0006FFB411B03200229F5D94DE020F00100F6
:101AD000C6F89800FFF764FB0546D6F89800800723
:101AE00006D5FFF75DFB411B03200229F5D93BE03A
:101AF000E069002800F09A80B16801F00C010C291F
:101B000035D101282FD0F068216A00F003028A4203
:101B100029D1616A6FF00F0202EB011100F0F002AF
:101B20008A4220D1A16A00F4FE42B2EB012F1AD101
:101B3000E16A00F07842B2EBC16F14D1216B404AE8
:101B400002EA015100F4C002A1F500118A420AD153
:101B5000616B4FF07E4200F0C06002EA016101F16A
:101B60007E41884262D0012002B0BDE8F081316838
:101B7000022821F0807131600ED1FFF711FB05467C
:101B8000306880011DD5FFF70BFB411B03200229A4
:101B9000F6D9E9E700100240F068274920F0030079
:101BA000F060F0680840F060FFF7FAFA0446306829
:101BB00080013BD5FFF7F4FA011B03200229F6D977
:101BC000D2E704F12007F0686FF00F058ECF05EB28
:101BD00002121A4D28400843216B1043184A40EA6C
:101BE000032002EA01514FF07E42A1F500110843A3
:101BF000616B40EAC76002EA016101F17E4108437E
:101C0000F060306840F080703060F06840F08070C4
:101C1000F060FFF7C5FA04463068800106D4FFF78C
:101C2000BFFA011B03200229F6D99DE700209BE79C
:101C30000C00002000700040FFFFEEFE0C809F01B2
:101C40000000E0FF411E0020B0EB116F1CBF01201F
:101C50007047044AF023516003490B7007219060DC
:101C60001160704710E000E023ED00E0704770471E
:101C7000704770477047704790F83C300222012B44
:101C800037D070B580F83D200122934D80F83C207C
:101C9000026854689368AA4202D08D4EB24203D1C2
:101CA0004E6824F470043443134EB2F1804F06EAB8
:101CB00004060C6846EA040656600DD0DE4CA242CB
:101CC0000AD0824CA24207D0814CA24204D0814C5F
:101CD000A24201D0AA4204D1896823F080031943AB
:101CE00091600022012180F83C2080F83D10BDE881
:101CF00070401046704700BF8FFFFFFD704760B314
:101D000010B5044690F83D0028B9002084F83C0046
:101D1000204600F025F80220211D84F83D002068AF
:101D200001F0FCFB012084F8480084F83E0084F8B0
:101D30003F0084F8400084F8410084F8420084F8B1
:101D4000430084F8440084F8450084F8460084F891
:101D5000470084F83D00002010BD012070470000BE
:101D600010B586B0044601A81421FEF758FA206881
:101D70003B49884216D0B049884224D05549884210
:101D800048D03849884256D0B0F1804F65D13648A6
:101D9000C16841F00101C160C06800F0010000901D
:101DA00000985AE030480022416941F480214161A5
:101DB0000021406900F48020009000981A20FFF76D
:101DC00055FA1A2047E02848C16841F00201C16075
:101DD000C16801F0020100910099016841F0010120
:101DE00001600021006800F00100009000980220CE
:101DF00005900491CDE90201802001A901904FF0E6
:101E00009040FFF7FFF81D2000210022FFF72EFA77
:101E10001D2020E014480022416941F480314161D5
:101E20000021406900F48030009000981820FFF7EE
:101E30001DFA18200FE00C480022416941F40031DE
:101E400041610021406900F40030009000981920A1
:101E5000FFF70CFA1920FFF7FBF906B010BD00BF21
:101E600000480140004401404C10024090F83D10F1
:101E700001291CBF01207047022180F83D10016834
:101E8000C868B1F1804F40F00100C8600ED06A48C8
:101E900081420BD00D48814208D00D48814205D0C7
:101EA0000C48814202D00C48814209D188680B4A13
:101EB00002400020062A08D0B2F5803F08BF7047D4
:101EC000086840F0010008600020704700080040EA
:101ED000002C014000400140003401400700010097
:101EE000B0B590F83C2004460220012A08BFB0BDDE
:101EF00084F83D0001203D4D84F83C0020680246F6
:101F000052F8083F2B4013600B6873B3102B2CD092
:101F1000202B2AD0302B28D0402B34D0502B3ED031
:101F2000602B48D0324883421FD0B3F5005F4ED0BB
:101F3000B3F1101F19D02F48834216D02E48834288
:101F400013D02E48834210D0702B15D1D1E9010354
:101F5000C968184340EA0120116821F47F41084311
:101F60001060106840F0770005E0106824490840D0
:101F7000184340F0070010600020012184F83C0065
:101F800084F83D10B0BD4B68CA68194601F088FC62
:101F900022681B4952F8080F08404730EBE74B68AE
:101FA000CA68194601F07CFC2268154952F8080FEE
:101FB00008405730DFE74B68CA68194601F0BAFCA1
:101FC00022680F4952F8080F08406730D3E7D1E97B
:101FD0000103C968184340EA0120116821F47F41D8
:101FE00008431060106840F48040C4E78800CEFFCA
:101FF00070001000200010003000100040001000A1
:1020000088FFCFFF0068AF49884218BF704710B5FE
:102010000A4C0421204600F0F3FC22680023084902
:102020005362084AB2FBF0F2C1E9030220460421E0
:10203000BDE8104000F0A4B80004004018020020E1
:102040002000002040420F00B0B5044690F83C004C
:10205000012804BF0220B0BD01200D46042A84F8E7
:102060003C000AD09AB9D5E90012EB68206801F06B
:1020700029FC206850F8181F26E0D5E90012EB680B
:10208000206801F068FC206850F8181F3BE0D5E993
:1020900000C32168D5F80CE0082A086A19D120F499
:1020A00080706EF307130862084650F81C2F22F068
:1020B000F3021A430B6A02600CF00A0223F4206355
:1020C00043EA02220A62016821F00C010160A9685A
:1020D0001EE020F480504FF2FF020862180220EA4E
:1020E0000202084650F81C3F6EF30F3223F473438C
:1020F0001A430B6A02600CF00A0223F4204343EAFD
:1021000002320A62016821F440610160A968090293
:10211000026811430160002084F83C00B0BD60B348
:1021200010B5044690F83D0028B9002084F83C0022
:10213000204600F024F80220211D84F83D0020688C
:1021400001F0ECF9012084F8480084F83E0084F89E
:102150003F0084F8400084F8410084F8420084F88D
:10216000430084F8440084F8450084F8460084F86D
:10217000470084F83D00002010BD012070477047E3
:1021800010B5044669B1081F4FEAB000032816D8FD
:10219000DFE800F0020C0F1294F83F2004F1450034
:1021A00016E094F83E2004F1440011E004F14000F0
:1021B00007E004F1410004E004F1420001E004F111
:1021C00043000278082914BF04F1470004F14600D7
:1021D0000378012A4FF0010008BF012B00D010BD89
:1021E00071B1081F4FEAB00003280FD8DFE800F0F4
:1021F00002141B1F022084F83F0084F845001CE0F5
:10220000022084F83E0084F8440016E002200829E9
:1022100084F8430003D00DE0022084F8400002203F
:1022200084F8460009E0022084F8410002E0022020
:1022300084F84200022084F847004FEAB1000328E6
:1022400008D8DFE800F002090E132068C26842F0E7
:1022500002020FE020680EE02068C26842F004022B
:1022600008E02068C26842F0080203E02068C26803
:1022700042F01002C260012201F0C4F92168B1F1FC
:10228000804F0ED00F4881420BD00F48814208D0BA
:102290000E48814205D00E48814202D00D4881424D
:1022A0000AD188680C4A02400020062A3FF497AF02
:1022B000B2F5803F08BF10BD086840F0010008601B
:1022C000002010BD0004004000080040002C014028
:1022D00000400140003401400700010010B50446F1
:1022E00000680169890744BFC1685FEA81715BD4F6
:1022F0000169490744BFC1685FEA417160D401695F
:10230000090744BFC1685FEA017166D40169C90663
:1023100044BFC1685FEAC1616BD40169C9071CBFD2
:10232000C1685FEAC17171D10169090644BFC16822
:102330005FEA016172D40169C90544BFC1685FEAFF
:10234000016173D40169490644BFC1685FEA416114
:1023500074D40169890644BFC1685FEA816175D49C
:102360000169C90244BFC1685FEAC12176D401692D
:10237000890244BFC1685FEA812177D401694902BB
:1023800044BFC1685FEA412178D40169090246BFB0
:10239000C1685FEA012110BD6FF4000101612046B0
:1023A000BDE81040FFF7AABC6FF0020101610121F6
:1023B00021778069800769D02046FFF723FE6BE014
:1023C0006FF00401016102212177806910F4407FE0
:1023D00066D02046FFF716FE68E06FF00801016145
:1023E00004212177C069800764D02046FFF70AFEE8
:1023F00066E06FF01001016108212177C06910F4D7
:10240000407F61D02046FFF7FDFD63E06FF00101E2
:102410000161204600F09EF9206885E76FF0800199
:1024200001612046FFF723FC206884E76FF4807188
:1024300001612046FFF71AFC206883E76FF0400136
:102440000161204600F0F3FA206882E76FF0200176
:1024500001612046FFF70CFC206881E76FF48011D2
:1024600001612046FFF706FC206880E76FF4001149
:1024700001612046FFF7FDFB20687FE76FF48001D4
:1024800001612046FFF7F7FB20687EE7204600F059
:102490004BF8204600F0D7F800202077206827E787
:1024A000204600F041F8204600F0CDF800202077CB
:1024B000206824E7204600F037F8204600F0C3F8F3
:1024C00000202077206821E7204600F02DF82046E4
:1024D00000F0B9F80020207720681EE710B586B01C
:1024E000044601A81421FDF79AFE2068B0F1804F40
:1024F00016D10C48016841F00101016001A9006892
:1025000000F0010000900098012005900020CDE926
:1025100003000220CDE901004FF09040FEF772FD6C
:1025200006B010BD4C10024070470000B0B5044624
:1025300090F83C00012804BF0220B0BD012084F8BF
:102540003C004FEAB200052848D80D46DFE800F00D
:10255000030B131B23332068294601F063F820681E
:1025600050F8181F1EE02068294601F08FF82068F7
:1025700050F8181F26E02068294601F0BFF82068AF
:1025800050F81C1F0EE02068294601F0F1F8206881
:1025900050F81C1F16E02068294601F023F9206836
:1025A00050F8501F41F008010160016821F004015A
:1025B000016029690FE02068294601F041F920688F
:1025C00050F8501F41F400610160016821F48061FE
:1025D000016029690902026811430160002084F842
:1025E0003C00B0BD60B310B5044690F83D0028B97A
:1025F000002084F83C00204600F024F80220211D31
:1026000084F83D00206800F089FF012084F848002C
:1026100084F83E0084F83F0084F8400084F84100CC
:1026200084F8420084F8430084F8440084F84500AC
:1026300084F8460084F8470084F83D00002010BD6F
:102640000120704770477047B0B5044659B1081F64
:102650004FEAB000032809D8DFE800F0020B0E11A2
:1026600004F13F000DE004F13E000AE004F14300F4
:1026700007E004F1400004E004F1410001E004F14E
:102680004200007801281CBF0120B0BD61B1081FC5
:102690004FEAB00003280BD8DFE800F0020E121654
:1026A000022084F83F0012E0022084F83E000EE091
:1026B000022084F843000AE0022084F8400006E08B
:1026C000022084F8410002E0022084F842002068E1
:1026D0000122012500F096FF2168184808444FEABE
:1026E000B020072808D805FA00F010F0E50F1EBF4B
:1026F000486C40F400404864B1F1804F0ED010485F
:1027000081420BD00F48814208D00F48814205D04A
:10271000B148814202D00D48814209D188680C4AF3
:1027200002400020062A08D0B2F5803F08BFB0BDA5
:10273000086840F0010008600020B0BD00D4FEBF72
:102740000004004000080040002C0140003401401B
:10275000070001002DE9F0479F4B0446006803F590
:10276000806188424CD1F24D9C4E01219A464FF037
:1027700001082846B0479A4F02214FF002093870ED
:102780002846B047387328460421B04738764FF0C2
:1027900090400121B04787F82400002000212BE061
:1027A0007A185378022B07D0012B18D01BBB7B5C07
:1027B0000BBB82F801801EE0536801335360C82BC5
:1027C0004FF0020338BF012353727E5C012E12D1F9
:1027D000022B0BD0012B08BF82F8028008E07B5C43
:1027E000002B14BF507082F8019004E082F808803A
:1027F0005070507250600C313029D1D1206853464E
:1028000003F50061884208D1764881690131B1F150
:10281000FF3218BF0A4682612068984201D0BDE8A5
:10282000F087704C607801286BD00028F7D16E4893
:1028300000234188013141806C4889B202685362AB
:10284000D162C16040F2F3108142E8D1684841F2A0
:1028500011120068016A114208D1016A44F244422F
:10286000114203D1016821F001010160B04E614FB6
:102870000421012206F500652846B84706F5806662
:102880004FF4807100224FF000083046B8473046C0
:102890004FF400710122B84730464FF480610122A5
:1028A000B84730464FF400610122B84730464FF434
:1028B00080510122B84730464FF400510122B847F9
:1028C00030464FF480410122B84730464FF4004172
:1028D0000122B847284604210022B847474890E81B
:1028E0008E000669007D44F8381F211D8CC12075BB
:1028F00048202661214600F02BF904F82E8CBDE813
:10290000F08739480023418801394180374889B22E
:10291000F92902685362D162C16018BFBDE8F0872F
:10292000334841F211120068016A114208D1016A6C
:1029300044F24442114203D1016821F001010160D7
:102940007B4E2C4F0421012206F500652846B8472E
:1029500006F580664FF4807100224FF00008304683
:10296000B84730464FF400710122B84730464FF463
:1029700080610122B84730464FF400610122B84718
:1029800030464FF480510122B84730464FF4005191
:102990000122B84730464FF480410122B847304603
:1029A0004FF400410122B847284604210022B847CD
:1029B000114890E88E000669007D44F8381F211DFB
:1029C00004F82E8C8CC12075266148202146BDE874
:1029D000F04700F0BDB800BF004001408911000879
:1029E000640200202000002000000020CC01002014
:1029F000E800002093110008086100082061000829
:102A00004FEAB101032984BF00207047DFE801F0DD
:102A1000020B05080068343007E000683C3004E031
:102A20000068403001E00068383000687047704747
:102A3000FEE70000FEB503204FF6FF710490002072
:102A400002900191059003900B4801A9FEF7DAFA74
:102A500006B080BDFEB5032001A9049001200290BC
:102A60004FF6FF7001900020059003900248FEF79A
:102A7000C9FA06B080BD00BF00080048B0B50446E2
:102A80000020002100F014F900F050F94FF49635C1
:102A900003E0204600F024F9013D002DF9D1B0BD3E
:102AA000F0B587B000262148214C012702AD0696DB
:102AB000016841F004010160016801F00401019125
:102AC0000199016841F001010160016801F0010113
:102AD00001910199016841F00201016029460068F5
:102AE00000F0020001900198059603974FF448709A
:102AF000029020460496FEF785FA4FF48070059602
:102B00000397294602904FF090400496FEF77AFA18
:102B1000FFF7A0FF0748215841F480712150A069B8
:102B200040F40870A06107B0F0BD00BF4C10024037
:102B30000004004818FCFFFF203AD3B25B0053FAB0
:102B400082F2024B03EB021200F016B8EC4E0008C2
:102B5000F8B50C46054640F23F16002709E0E25D55
:102B6000002A08BFF8BDB1B22846FFF7E5FF0137DC
:102B7000103E132FF3D9F8BD2DE9F84F14468846BF
:102B8000814600F095F8DFF824A1DFF850B1002766
:102B90000125182F08BFBDE8F88F00F0C7F8002600
:102BA0000CE034F8170005FA06F1014214BFBBF837
:102BB0000000BAF8000000F093F80136102EF0D1B2
:102BC00009F1010941465FFA89F000F071F8013717
:102BD000DFE700BF10B5FFF763FF002000F014F837
:102BE000084C48F2302120802088884202D100F031
:102BF000E5FA01E000F058FB002000F005F8208025
:102C000010BD00BF78000020B0B5214CD4F81014DE
:102C100041F40071C4F81014D4F8101441F4807118
:102C2000C4F81014D4F8001441F02001C4F80014C2
:102C300018490860D4F8100440F02000C4F81004CB
:102C400000BF00BF00BFD4F8000440F02000C4F86B
:102C50000004D4F8000440F48070C4F80004FFF7C6
:102C6000E9FE206940F48070206100BF00BF00BF12
:102C7000D4F8F857206840F480702060FFF7EAFE2F
:102C8000D4F8000440F40070C4F80004A8B2B0BD49
:102C9000180000481408004881B0ADF8020003484D
:102CA000BDF80210018001B0704700BF1400002081
:102CB00010B50C460146202000F060F82120214686
:102CC000BDE8104000F05AB881B0ADF802000348EA
:102CD000BDF80210018001B0704700BF76000020EF
:102CE0003E490A6942F400720A610A6842F480723D
:102CF0000A600A6842F020020A60C1F8FC03086911
:102D000040F02000086100BF00BF00BF086840F02D
:102D100020000860086840F48070086000BF00BFB1
:102D200000BF086840F40070086070472B480169D4
:102D300041F400710161016941F480710161016830
:102D400041F0200101602221C0F8FC13016941F02B
:102D50002001016100BF00BF00BF016841F02001F8
:102D60000160016841F48071016000BF00BF00BFD5
:102D7000016841F400710160704700BF174A136990
:102D800043F400731361136943F480731361136890
:102D900043F020031360C2F8FC03106940F02000E8
:102DA000106100BF00BF00BF106840F0200010603D
:102DB000106840F480701060C2F8FC13106940F095
:102DC0002000106100BF00BF00BF106840F020006D
:102DD0001060106840F4807010607047180400485C
:102DE000C1F3045CC1F34061072300EB810003FAE7
:102DF0000CF302FA0CF241699943114341617047A7
:102E0000B0B588B068462021FDF709FA1748184A7E
:102E100000244FF440310123042580F84040C4636E
:102E200080F83840C0E90B4480F824400362848372
:102E3000C0E90021C0E90244C0E904448561FDF70E
:102E40004BFF08B1FDF792FD7F20CDE904546946A0
:102E5000CDE9024006200190064800900348FDF7A6
:102E600089FD08B1FDF782FD08B0B0BD7C000020EF
:102E7000000100500080F03E2DE9F04F87B00024A3
:102E80004548474F00224FF6DF750694016841F030
:102E900004010160016801F00401019101990168D8
:102EA00041F020010160016801F0200101910199C8
:102EB000016841F001010160016801F00101019127
:102EC0000199016841F002010160016801F002010D
:102ED00001910199016841F0080101604FF6DF712D
:102EE000006800F00800019001982C4800F5806609
:102EF00081463046B8474FF090404FF48071002231
:102F00004FF4807AB84709F5006B04210022584637
:102F1000B84748464FF448710022B847029502AFBF
:102F2000204D4FF001083046CDE904443946CDF834
:102F30000C80A8474FF090403946CDF81080CDE97D
:102F40000284A847202004943946CDE90204304683
:102F5000A847072002A981E8110148463946A84739
:102F60004FF090403946CDE90444CDE902A8A84786
:102F700004200594CDE90384394602905846A847B9
:102F80004FF448700594CDE90384394602904846D1
:102F9000A84707B0BDE8F08F4C100240000400487D
:102FA000931100080510000810B588B01748184C98
:102FB0000021C72244F26723CDE90611CDE90411AF
:102FC000C0E90043C0E90212C0E904118161039124
:102FD000CDE90111FEF793FE08B1FDF7C7FC4FF4F0
:102FE000805004A904900948FEF77AFF08B1FDF764
:102FF000BDFC002001A9039001900448FEF73CFEAF
:1030000008B1FDF7B3FC08B010BD00BFE800002018
:103010000040014010B50B480B4CA923002142F29F
:103020000F72C0E90043C0E90212C0E904118161D6
:10303000FEF765FE002814BFBDE8104010BDFDF787
:1030400095BC00BF340100200044014010B50B487E
:103050000B4C44F26723002142F20F72C0E9004397
:10306000C0E90212C0E904118161FEF748FE0028A0
:1030700014BFBDE8104010BDFDF778BC80010020F2
:103080000048014010B58EB0002468461C210D9404
:10309000CDE90B44CDE90944CDE90744FDF7BFF87C
:1030A0001E4840F2F31154224FF080438461C0E97E
:1030B0000032C0E902410461FEF721FE08B1FDF7CC
:1030C00055FC4FF480500AA90A901448FEF708FFF7
:1030D00008B1FDF74BFC1148FFF784FA08B1FDF782
:1030E00045FC0E48002407A909940794FEF7C4FD87
:1030F00008B1FDF73BFC60200494CDE9014469462A
:10310000042200900548FFF711FA08B1FDF72EFCE4
:103110000248FFF7E3F90EB010BD00BFCC0100205C
:1031200010B58CB0FC48224C00214FF6FF72A92349
:103130000B91CDE90911CDE90711CDE905118161A7
:10314000C0E90043C0E902120161CDE90311CDE9F4
:103150000111FEF7D4FD08B1FDF708FC4FF48050D3
:1031600008A90890EC48FEF7BBFE08B1FDF7FEFB8E
:10317000E948FEF7D4FF08B1FDF7F8FBE648002464
:1031800005A907940594FEF777FD08B1FDF7EEFB5E
:103190000120CDE9034401A90422CDE90140DE4824
:1031A000FEF752FF08B1FDF7E1FB0CB010BD00BF08
:1031B00000040040FEE7FEE77047000010B59E4C9B
:1031C00000200121A04701200021A047102041F24A
:1031D0009071A04760204FF41C51A047612001214D
:1031E000A04746200221A047132048F21001A04723
:1031F0002C48EE3081B21220A04702204FF4A0618B
:10320000A047032041F23001A047302040F20331B3
:10321000A047312040F20331A047322040F2033171
:10322000A04733204FF44071A04734200321A0472A
:10323000352040F20331A04736201421A047372023
:1032400040F20331A047382040F20331A047392033
:1032500040F20331A0473A204FF44071A0473B2091
:103260000321A0473C2040F20331A0473D204FF40A
:10327000A051A04792204FF40071A047932040F244
:103280000331A047902040F60D01A047032041F2F2
:103290001801A047072040F273112246BDE81040F4
:1032A000104700BF1080FFFFB0B5634DE32043F22D
:1032B0000801A847E7201221A847EF2041F2312159
:1032C000A84701200021A84702204FF4E061A84749
:1032D000032041F23001A84704200021A84708201C
:1032E00040F20721A84709200021A8470A20002111
:1032F000A8470C200021A8470D200021A8470F2037
:103300000021A84710200021A84711200721A84725
:1033100012200021A84713200021A847474CC820AD
:10332000A047102041F29061A847112040F22721C8
:10333000A8473220A04712201D21A8473220A047CD
:1033400013204FF40061A84729201421A8472B20FF
:103350000B21A8473220A04720200021A847212088
:103360000021A84730200721A847312040F20771EB
:10337000A84732200621A847352040F20471A8470B
:10338000362041F60471A84737200421A847382089
:103390000021A847392040F20671A8473C2040F29E
:1033A0000171A8473D200F21A84750200021A847C0
:1033B0005120EF21A84752200021A847532040F276
:1033C0003F11A84760204FF41C51A84761200121FC
:1033D000A8476A200021A84780200021A847812013
:1033E0000021A84782200021A84783200021A84768
:1033F00084200021A84785200021A8479020102183
:10340000A84792200021A84793200321A847952090
:103410004FF48871A84797200021A84798200021E1
:10342000A847032041F21801A847072040F2731172
:103430002A46BDE8B04010477D2D0008E50F000882
:103440007047FDF7B1BE70B5A4B016AC142104F1FD
:103450000800FCF7E4FE11A81421FCF7E0FE684622
:103460004421FCF7DCFE00200025FDF72DFF0220A3
:10347000552103262390CDE92100209106211F919B
:10348000CDE91D064FF4803017900120169020469C
:10349000FEF7BAF918B1EFF3108072B6FEE70F200D
:1034A000CDE91455CDE912650421119011A8FEF75C
:1034B00081F818B1EFF3108072B6FEE74FF00050BC
:1034C0000F904FF4004000906846FDF75BFF18B185
:1034D000EFF3108072B6FEE724B070BD02480168B9
:1034E00041F470010160704788ED00E00148FEF78B
:1034F000F5BE00BFE80000200148FEF7EFBE00BFA8
:10350000800100200148FEF7E9BE00BF3401002021
:103510000148FEF7E3BE00BF18020020B0B5036803
:10352000324DB0F1804F0AD0314A904207D0314A33
:10353000904204D0304A904201D0A84238D105F5DB
:10354000C0544A6823F07003041BB4FA84F4134394
:1035500005F5E0524FEA541E05F5A054821A041BEB
:10356000B2FA82F2B4FA84F452094FEA541CCC68DD
:1035700023F4407323434C6923F08003002A43EA79
:10358000040303608B68C3620B6883620BD1BEF1D6
:10359000000F08D1A84206D005F50062904202D083
:1035A000BCF1000F01D00969016301214161B0BD87
:1035B00005F5C05405F5E052041B821AB4FA84F4F0
:1035C000B2FA82F24FEA541E05F5A0545209041BC8
:1035D000B4FA84F44FEA541CD44CA042C7D0074C30
:1035E000A042C4D0064CA042C1D0C4E7002C014088
:1035F0000004004000080040003401400048014041
:103600000044014001F01F01012303FA01FC036A99
:1036100002FA01F123EA0C030362026A1143016218
:103620007047000070B5026A22F001020262026A6D
:10363000D0F804E083698D680C6822F0020215431B
:103640004A4A1A4042EA040C944A02444FEAB2221F
:10365000072A13D8012303FA02F212F0E50F0DD066
:10366000CE68D1E905342EF440721A4326F00403E3
:1036700042EA040E25F00C0243EA0205C0F804E019
:10368000C0F818C049684163056270BD70B5026A30
:1036900022F010020262026A466883698D680C6833
:1036A00022F0200242EA051E4D4A1A406FF0040340
:1036B00042EA042C794A024403EBB223032B0DD3D4
:1036C0004FEAB222022A00D082B9CA686FF04003E2
:1036D00003EA02122EF0C00342EA030ED1E90523E9
:1036E00026F4406444EA820242EA83064660C0F857
:1036F00018C049688163C0F820E070BD70B5026AE7
:1037000022F480720262026A4668C3698D680C689E
:1037100022F4007242EA052E144A1A406FF00403A4
:1037200042EA040C5D4A024403EBB223032B0DD39F
:103730004FEAB222022A00D082B9CA6840F2FF439F
:1037400012029A432EF4406342EA030ED1E90523A4
:1037500026F4405444EA021242EA03164660C0F8D6
:103760001CC04968C163C0F820E070BD8CFFFEFF3B
:1037700070B5026A22F480520262026A4668C36926
:103780008D680C6822F4005242EA053E144A1A4041
:103790006FF0040342EA042C404A024403EBB223D4
:1037A000032B0DD34FEAB222022A00D082B9CA6895
:1037B00044F6FF7312039A432EF4404342EA030E89
:1037C000D1E9052326F4404444EA821242EA8316F2
:1037D0004660C0F81CC049680164C0F820E070BDB4
:1037E000FF8CFFFE70B5026A22F480320262026A28
:1037F0004668036D8D680C6822F4003242EA054C7D
:103800000E4A1A4042EA040E244A02444FEAB22207
:10381000072A0AD8012303FA02F212F0E50F1EBFAD
:103820004A6926F4803343EA02264660C0F850E035
:1038300049688164C0F820C070BD00BF8FFFFEFFE3
:1038400070B5026A22F480120262026A4668036D51
:103850008D680C6822F4001242EA055C0E4A1A4098
:1038600042EA042E0D4A02444FEAB222072A0AD83D
:10387000012303FA02F212F0E50F1EBF4A6926F493
:10388000802343EA82264660C0F850E04968C1645C
:10389000C0F820C070BD00BFFF8FFFFE00D4FEBF88
:1038A000D0F820C0036A23F001030362836923F088
:1038B000F00343EA021282612CF00A021143016212
:1038C0007047000010B5D0F820C0B0F1804F2CF048
:1038D000010CC0F820C0D0F818E0D0F820C00ED0FD
:1038E0000F4CA0420BD00F4CA04208D00E4CA0426F
:1038F00005D00E4CA04202D00D4CA0420CD12EF0AF
:103900000304224363F3071201F00A0182612CF0E1
:103910000A021144016210BD4EF00102F2E700BF3D
:103920000004004000080040002C0140004001401D
:1039300000340140036A23F010030362836923F417
:10394000704343EA0232036A826123F0A00242EA32
:10395000011101627047D0F820C001F00A012CF07B
:10396000100CC0F820C04FEA022C4FF2FF022CEAE4
:10397000020263F30F32836923F473431A43036A29
:10398000826123F0A00242EA011101627047FEE762
:1039900010B5074C00F00F03044AB0F1FF3F234479
:1039A000C8BF83180801187010BD00BF00E400E014
:1039B00014ED00E0000000009EB0FDF7FFFBFFF7F4
:1039C00042FDFFF759FAFFF75DFBFFF7A9FBFFF791
:1039D00021FBFFF715FAFFF739FBFFF7E5FADFF8F0
:1039E000145BDFF8144B2846A047DFF8100BA04704
:1039F000DFF80C0BA047286841F21112016A11424E
:103A000008D1016A44F24442114203D1016821F015
:103A100001010160FFF7DEF800200024FFF72EF817
:103A20000020FFF739F94FF6FF70FFF74DF9DFF887
:103A3000D45A04212846FEF707FE286840F2F31105
:103A40004462C162DFF8C00AE9600421FEF798FB16
:103A5000DFF8B80ADFF8B8AADFF8B88A90E88E0075
:103A600006695446007D1B921A93199744F8381F33
:103A70001C91179018962075182021466260A3604B
:103A8000E7602661C047DFF8900A214690E88C0085
:103A9000D0E90365007D0A9363600997A7600690EB
:103AA000207548200B9222600896E66007952561F4
:103AB000C0470FF66820DFF8646A071D007D8ECFCF
:103AC000C4E9006104F108018CC120756020214621
:103AD000C0470FF66020DFF85C6A071D007D8ECFBF
:103AE000C4E9006104F108018CC1207578202146E9
:103AF000C047ED4CDFF8586A0421012204F58065C7
:103B00002846B04720464FF480710122B047204636
:103B10004FF400710122B04720464FF4806101222A
:103B2000B04720464FF400610122B04720464FF4D1
:103B300080510122B04720464FF400510122B04786
:103B400020464FF480410122B04720464FF4004107
:103B50000122B0472846042100221D95B047DFF816
:103B6000000A9FEDD38B9FEDD49B9FEDD5AB9FEDCE
:103B7000D6BB9FEDD7DB9FEDD8EBDFF8DC89DFF814
:103B8000DCB99FEDD7FB9FEDD8CB0168059141686B
:103B9000049181680391C16802910169007D0090E0
:103BA0000FF6C01001914168169181681591C168A6
:103BB00014910169007D1290DFF8080A13910168E1
:103BC00011914168109181680F91C1680E9101694E
:103BD000007D0D910C90DFF87C4946462046FDF7AC
:103BE00097F92046FDF774F80546FCF7E1FC53EC25
:103BF000182BFCF7C6FB53EC192BFCF7C2FBCAF8D9
:103C00002C5055EC1A7B41EC100B044688463A4682
:103C10002B468AED0C0BFCF795FC18BB2046414661
:103C20003A462B46FCF78EFC4FF05509E0B953ECB1
:103C30001B2B20464146FCF7A0FCA8B99FEDAC0B1E
:103C40002046414653EC102BFCF79BFB53EC1D2BFD
:103C5000FCF797FB53EC1E2BFCF7ECFAFCF7B5FCDA
:103C6000814601E04FF00A099AF80070B046C6F8A4
:103C70000490012F02D19AED050A3DE09AED040A65
:103C8000B8EE400A10EE100AFCF7B8FC02460B46EC
:103C9000FCF7D0FA53EC1F2BFCF773FB044698F8A3
:103CA000000098F801600D4600EE100AB8EE400AD8
:103CB00010EE100AFCF7A2FC02460B4620462946ED
:103CC000FCF75FFB53EC1C2BFCF7CDFB00EE106AFE
:103CD00004460D46B8EE400A10EE100AFCF78EFCC2
:103CE00002460B4620462946FCF7BDFBFCF799FC33
:103CF00000EE100ACAF814009AED0A1AB4EEC10ACE
:103D0000F1EE10FA15DD9AF80610DAF8180011B184
:103D1000DAF8201005E001218AF806100146CAF8F9
:103D20002000401A022822BF00208AF806008AEDEF
:103D30000A0A98ED021AB4EEC10AF1EE10FA15DA89
:103D40009AF80710DAF8180011B1DAF8241005E033
:103D500001218AF807100146CAF82400401A0228F7
:103D600022BF00208AF8070088ED020A9BF80200B3
:103D700001286CD1781C8AF800000020FEF77EFE36
:103D80009AF8000030B101284AD003285CD1002005
:103D90008AF800001D9DDFF8B8770421012228462B
:103DA000B847414C4FF4807100222046B847204666
:103DB0004FF400710122B84720464FF48061012280
:103DC000B84720464FF400610122B84720464FF41F
:103DD00080510122B84720464FF400510122B847D4
:103DE00020464FF480410122B84720464FF400415D
:103DF0000122B847284604210022B8479AF801005A
:103E00005146012810D1059841F8380F04984860B0
:103E1000039888600298C8600198086100980FE0D4
:103E200000208AF802000FE00B9841F8380F0A983A
:103E30004860099888600898C860079808610698E3
:103E400008754820FEF784FE00208BF802009BF8DE
:103E50000E00012824D1DAE90610081A052824BF2B
:103E600000208AF808009AF80000012844D00028B1
:103E700049D19AF80820002A45D1CAF81C1040F20E
:103E80000111AAF808109AF801109AF80320B1FA63
:103E900081F1013249098AF803208AF8011032E0E1
:103EA0009AF8000032E000BF0008004800BF00BFE1
:103EB0006666666666660A40000000000000303FE5
:103EC000000000000000F03F00000000000008407B
:103ED000000000000000E03F0000000000803BC048
:103EE0001F85EB51B81E094000000000000059403A
:103EF0000000000000C052409AF80210B1FA81F1AF
:103F000049098AF8021000218BF80E10012838D1D7
:103F10009BF81A00012817D142469AF8020098F837
:103F2000001012F8013F002803F1010308BF4B1CE9
:103F3000D9B20B2908BF012300284FF0000008BFA9
:103F4000424613708BF81A009BF82600012840F0B7
:103F50006C8142469AF8020098F8001012F8013F6E
:103F60000028A3F1010308BF4B1E190608BF0A234E
:103F700000284FF0000008BF424613708BF826005F
:103F800053E19AF80810014335D11D9DDFF8C07543
:103F9000042101222846B847E84C4FF480710022E2
:103FA0002046B84720464FF400710122B84720460A
:103FB0004FF480610122B84720464FF4006101228E
:103FC000B84720464FF480510122B84720464FF4AD
:103FD00000510122B84720464FF480410122B847E2
:103FE00020464FF400410122B84728460421002210
:103FF000B8479AF80000002840F01581B8F8021080
:104000000520B1FBF0F000EB8002891A090440F0B2
:10401000808010F001019AF8040012D088B91D9D2B
:10402000DFF82C75042101222846B847C34C4FF411
:10403000807100222046B84720464FF400710022CC
:1040400012E0B9B9B0B91D9DDFF804750421012251
:104050002846B847B94C4FF4807100222046B84733
:1040600020464FF400710122B84720464FF480618A
:1040700001222DE099B1012811D11D9DDFF8D074E6
:10408000042101222846B847AC4C4FF4807100222D
:104090002046B84720464FF40071002213E0C1BB10
:1040A000012836D11D9DDFF8A8740421012228467D
:1040B000B847A24C4FF4807100222046B8472046F2
:1040C0004FF400710122B84720464FF4806100226E
:1040D000B84720464FF400610122B84720464FF40C
:1040E00080510122B84720464FF400510122B847C1
:1040F00020464FF480410122B84720464FF400414A
:104100000122B847284604210022B84701208AF836
:104110000A009AF80000002840F085809AF8040010
:10412000012805D19AF80A00002844D09AF8040022
:104130009AF80510012908BF002802D09BF82C101E
:10414000EFE01D9DDFF80874042101222846B847DE
:104150007A4C4FF4807100222046B84720464FF435
:1041600000710122B84720464FF480610122B84710
:1041700020464FF400610122B84720464FF4805199
:104180000122B84720464FF400510122B84720468B
:104190004FF480410122B84720464FF400410122EC
:1041A000B847284604210022B84700208AF80500B5
:1041B0009AF8000037E01D9DE54F042101222846B2
:1041C000B847E24C4FF4807100222046B8472046A1
:1041D0004FF400710122B84720464FF4806100225D
:1041E000B84720464FF400610122B84720464FF4FB
:1041F00080510122B84720464FF400510122B847B0
:1042000020464FF480410122B84720464FF4004138
:104210000122B847284604210022B8479AF8000036
:1042200000283FF483AF012834D11D9DC84F0421DD
:1042300001222846B847C54C4FF480710122204620
:10424000B84720464FF400710122B84720464FF48A
:1042500080610122B84720464FF400610122B8472F
:1042600020464FF480510122B84720464FF40051B8
:104270000122B84720464FF480410122B84720462A
:104280004FF400410122B847284604210022B847D4
:104290009AF80000022834D11D9DAD4F042101225F
:1042A0002846B847A94C4FF4807101222046B847F0
:1042B00020464FF400710122B84720464FF4806138
:1042C0000122B84720464FF400610122B84720463A
:1042D0004FF480510122B84720464FF4005101228B
:1042E000B84720464FF480410122B84720464FF49A
:1042F00000410122B847284604210022B8479AF815
:1043000000009BF82C1028B1012903D100218BF863
:104310002C1000E028B1022814D0B0B99AF804207B
:104320000EE0481E9AF80420B0FA80F04009012AF5
:1043300006D10028F2D00020E8E700BF00080048BE
:1043400042B9002000228BF82620012878D00028CE
:1043500040F09A80012906D100208BF82C00012022
:104360008AF8040003E09AF8040001280AD19BF8B7
:104370002600012806D14FF48070AAF8040000201E
:104380008BF826001C98544644F8380F1B98214699
:1043900060601A98A0601998E060189820611798DA
:1043A00020751820FEF7D4FB14F8371C14F82F0CD6
:1043B00001290DD1012819D14E480068016841F04A
:1043C0000101016000208AF8090040F2F3100BE0BF
:1043D00001280BD147480068016841F001010160E4
:1043E00000208AF80900F920A8F802009AF80400D1
:1043F00050B9B8F80200D8F8041048436421B0FB63
:10440000F1F04049096888630AF13804D8F80420BB
:104410006649204600F0E0F860202146FEF798FB50
:10442000DAF81400FCF7EAF802460B46204660A1D1
:1044300000F0D2F878202146FEF78AFBFFF7CBBBCD
:1044400048485446334A44F8380F169815462146D2
:1044500060601598A0601498E0601398206112982D
:1044600020751820904798F80020204643A100F0BE
:10447000B3F848202146A84798F80120204645A1D6
:1044800000F0AAF8602030E011985446214D44F81D
:10449000380F1098214660600F98A0600E98E06079
:1044A0000D9820610C9820751820A84714F8352C19
:1044B0004549464F2046B84748202146A84754F86A
:1044C000100CFCF79BF80B46414902462046B847C2
:1044D00060202146A847D8F80800FCF78FF80B4663
:1044E0003C4902462046B84778202146A847FFF7B6
:1044F00072BB00BFE80000206D1E000834010020E0
:1045000080010020CC010020180200203861000842
:1045100020000020512B00082061000820202020CE
:1045200020503D302020202020202020202020202E
:10453000000000002020202020563D302020202098
:10454000202020202020202000000000000800481B
:10455000931100087C00002000000020640200206D
:1045600008610008202020202020202050415241B6
:1045700020202020202020200000000020202020BB
:1045800020523D2564202020202020202020202093
:104590002000000020202020204B3D2564202020EA
:1045A000202020202020202020000000D1600008B2
:1045B0002020202020563D252E316620202020203E
:1045C0002020000050610008BC600008D9450008A8
:1045D000E2600008F46000080FB4084B10B504A9AD
:1045E00002AA039800F0DEF8044602A9002000F0B9
:1045F00070FC204610BC5DF814FB0000D34E000890
:1046000002E008C8121F08C1002AFAD1704770479B
:10461000002001E001C1121F002AFBD170470000F9
:104620002DE9FF5F82B00021DDE90430020DDDF8E5
:1046300040B0034318D044F61050A2F2FF32424378
:104640001514119801281FD0A5EB0B00401C5FEA40
:10465000000A4FF000064E4FDFF83891B046504642
:1046600015D5CAF1000413E0119801244AA30128CA
:1046700001D16FEA0B010298119AC0E90031C0E93B
:10468000024206B0BDE8F09FCBF10000DFE7044630
:104690000021404A491842EB0450CDE9001012E0D5
:1046A000E00707D032463B4640464946FBF769FEE5
:1046B0008046894632463B4610461946FBF761FE66
:1046C00006460F466410002CEAD1DDE90401DDE95D
:1046D0000023BAF1000F06DAFBF753FE42464B46C1
:1046E000FBF74FFE05E0FBF7BEFE42464B46FBF7ED
:1046F000BAFE04460E460022284BFCF7D3F803D836
:104700004FF0FF30014607E00022254B204631469E
:10471000FBF790FDFCF7ADF8102409E0002C0ADB54
:104720000A220023FBF7AFFF039B30321A55641EA9
:1047300050EA0102F2D1641C039AC4F1110314443B
:10474000119A012A03D0012208430DD10AE008433F
:1047500004D000204FF0110B119072E7A3EB0B0572
:104760006D1E0DE05B4504DD4FF0000205F1010513
:1047700004E003DA4FF00002A5F10105002AECD0B5
:1047800002981199C0E90231C0E9004579E70000BB
:10479000000014400000F03F300000000000F04333
:1047A0000000E03F2DE9FF4F95B09B468946064645
:1047B00000250FE2252877D100242746F84A012159
:1047C000059400E0044316F8013F203B01FA03F092
:1047D0001042F7D130782A2811D06FF02F033078AB
:1047E000A0F13002092A16D8059A44F0020402EB1F
:1047F000820203EB42021044761C0590EFE759F861
:10480000042B0592002A03DA504244F40054059028
:1048100044F00204761C30782E2816D116F8010FC9
:1048200044F004042A280DD06FF02F023078A0F154
:104830003003092B09D807EB870302EB4303C718A2
:10484000761CF3E759F8047B761C30786C280FD07F
:1048500006DC4C2817D068280DD06A2814D104E053
:10486000742810D07A280FD10DE044F400140AE027
:1048700044F4801401E044F440147278824202D17E
:1048800004F58014761C761C307866280BD013DC77
:10489000582877D009DC002875D04528F6D046285E
:1048A000F4D047281AD19DE118E0632835D0642858
:1048B00079D0652812D195E1702873D008DC67287B
:1048C000F1D069286FD06E280DD06F2806D1B5E0E1
:1048D00073282CD0752875D0782874D05A4617992B
:1048E00090476D1C75E1C4F30250022809D00328DB
:1048F0000DD0D9F8001004280DD00D6009F104097D
:1049000067E1D9F80010EA17C1E90052F6E7D9F8D3
:1049100000100D80F2E70D70F0E719F8041B8DF818
:10492000001000208DF80100EA46012003E059F84C
:1049300004AB4FF0FF3061074FF0000102D40DE0EF
:1049400008F101018846B9420FDA8045F8DB1AF810
:1049500008100029F4D108E008F1010188468142DD
:10496000FADB1AF808100029F6D105985B46A0EB8F
:10497000080721463846179A00F094FA284400EBBD
:10498000080507E04DE029E10DE01AF8010B5A4651
:1049900017999047B8F10108F7D25B46214638468F
:1049A000179A13E142E00A220092C4F302524FF038
:1049B000000A022A08D059F804CB032A4FEAEC7106
:1049C0000AD00DE029E02AE009F1070121F00702F1
:1049D000F2E802C1914609E00FFA8CFC4FEAEC7153
:1049E000042A03D14FFA8CFC4FEAEC71002907DA54
:1049F0000A460021DCF1000C61EB02012D2202E0ED
:104A0000220504D52B228DF80420012203E0E207C1
:104A100001D02022F7E7904659E00A2102E0102257
:104A20000DE010214FF0000A00910BE010224FF032
:104A3000000A44F004040827009203E008224FF023
:104A4000000A0092C4F30252022A05D059F804CB9E
:104A50000021032A08D009E009F1070121F007022B
:104A6000F2E802C1914605E01FFA8CFC042A01D14C
:104A70000CF0FF0C4FF00008220728D5702806D054
:104A8000009B83F0100353EA0A0305D00EE0402296
:104A90008DF80420012208E05CEA010206D03022F1
:104AA0008DF804208DF8050002229046009B83F0CB
:104AB000080353EA0A030AD15CEA010201D1620742
:104AC00005D530228DF804204FF001087F1E5828AC
:104AD00004D034A003900EA802900DE036A0F9E7B0
:104AE00053466046009AFBF7CEFD84460398825CED
:104AF0000298401E029002705CEA0100F0D1029818
:104B000006A9081A00F1200A600702D524F48034AF
:104B100000E00127574502DDA7EB0A0000E0002076
:104B200000EB0A01009005984144401A0590E0030B
:104B300006D45B462146179A059800F0B3F9054460
:104B4000002706E001A85A46C05D179990476D1CE2
:104B50007F1C4745F6DBE0030CD55B462146179AE0
:104B6000059800F09FF9054404E030205A46179953
:104B700090476D1C0099481E00900029F5DC08E064
:104B8000029802995A460078491C02911799904759
:104B90006D1CBAF10001AAF1010AF1DC65E1000027
:104BA0000928010030313233343536373839616203
:104BB00063646566000000003031323334353637C7
:104BC00038394142434445460000000000F058F99E
:104BD0000544761C307800287FF4ECAD19B02846E7
:104BE000BDE8F08F620700D4062709F1070222F022
:104BF000070CFCE80223E14603F000485FEA080CDA
:104C000002D00FF2702C0DE05FEA045C02D50FF2C7
:104C1000682C07E05FEAC47C02D00FF2602C01E050
:104C2000AFF2700C4FF0FF3823F00043CDF850C0C6
:104C300065280CD006DC452809D046281DD0472819
:104C40003DD13DE0662818D067287ED138E00021AC
:104C5000112F01DB112000E0781CCDE9000106A92D
:104C60000EA8FFF7DDFCDDE90F010E9A039100218C
:104C7000009207F1010A04914DE04FF000400097C7
:104C8000CDE9011006A90EA8FFF7CAFCDDE90F0265
:104C900003920E9B11990022DDF80CA00093049260
:104CA00011B9791C00EB010AB7EB0A0004D4C0F17A
:104CB000FF3007F1010A0490AAEB0700019044E0DD
:104CC000012F00DA01270021112F01DD112000E062
:104CD0003846CDE9000106A90EA8FFF7A1FCDDE9E1
:104CE0000F010E9A0391002104910092BA46210708
:104CF0000CD40399514500DA8A46BAF1010F05DD5B
:104D0000009AAAF10101515C302908D0B84202DAB8
:104D100010F1040F06DA0121CDE9011015E0AAF126
:104D20000101E9E7002805DC049901440491AAEB9C
:104D3000000102E0411C514500DD8A460499401AF9
:104D4000401C01904FF000400290200704D40198CD
:104D5000504501DBCDF8048000208DF84F0002980B
:104D60000DF14F07B0F1004F25D02B200E90029887
:104D70004FF0020800280CDA404202902D200E90DD
:104D800007E00A210298FBF768FC3031029007F82F
:104D9000011DB8F10001A8F10108F2DC0298002819
:104DA000EFD1791E0E980870307800F0200040F0A6
:104DB000450007F8020D12A8C01B00F1070814985F
:104DC000007800B1012000EB0A01019801EBE071CD
:104DD00005984144401A401E0590E00306D45B4606
:104DE0002146179A059800F05DF80544149800785C
:104DF00018B15A46179990476D1CE00324D55B46BD
:104E00002146179A059800F04DF805441CE00498D7
:104E1000002807DBDDE90301884203DD0098405CE0
:104E2000179901E0179930205A469047049805F1E8
:104E30000105401C04900198401E019004D12E20D1
:104E40005A46179990476D1CBAF10001AAF1010A60
:104E5000DDDC05E017F8010B5A46179990476D1CE9
:104E6000B8F10001A8F10108F4DC5B462146179A6D
:104E70000598ABE62D0000002B000000200000008C
:104E80002DE9F041044600251E461746880404D447
:104E900005E039462020B0476D1C641EF9D5284630
:104EA000BDE8F0812DE9F041044600251E469046FC
:104EB000C80301D5302700E02027880404D505E089
:104EC00041463846B0476D1C641EF9D52846BDE8FA
:104ED000F0810A68531C0B601070704700000000DE
:104EE000000000000102030406070809000000009A
:104EF00000000000000000000000000000000000B2
:104F000000000000000000000000000000000000A1
:104F10000000000000000000000000000000800110
:104F20008001800180018001800180018001800179
:104F3000800180018001800100000000800180016B
:104F40000000000000000000000000000000000061
:104F5000CC00CC00CC00CC00CC00CC000000000089
:104F60000000000000000000000000000000000041
:104F70000000000000000000000000000000000031
:104F80000000000000000000600C600C600C3006A7
:104F90003006FE1FFE1F300638071803FE1FFE1FD7
:104FA000180318038C018C018C01000000008000A4
:104FB000E003F80F9C0E8C1C8C188C009800F801F4
:104FC000E007800E801C8C188C189C18B80CF00F11
:104FD000E0038000800000000000000000000000EE
:104FE00000000E181B0C110C110611061103110301
:104FF0009B018E01C038C06C604460443044304432
:105000001844186C0C380000000000000000E0019B
:10501000F0033807180618063003F001F000F80016
:105020009C310E33061E061C061C063FFC73F02145
:105030000000000000000000000000000000000070
:105040000C000C000C000C000C000C000000000018
:105050000000000000000000000000000000000050
:10506000000000000000000000000000000000023E
:1050700000038001C000C00060006000300030000C
:105080003000300030003000300030006000600040
:10509000C000C000800100030002000000002000EA
:1050A0006000C000800180010003000300060006CC
:1050B00000060006000600060006000600030003C6
:1050C00080018001C000600020000000000000009E
:1050D0000000000000000000C000C000D806F80773
:1050E000E00130033807000000000000000000006D
:1050F00000000000000000000000000000000000B0
:10510000000000000000000080018001800180019B
:105110008001FC3FFC3F8001800180018001800113
:10512000000000000000000000000000000000007F
:10513000000000000000000000000000000000006F
:1051400000000000000000000000000000008001DE
:10515000800100010001800000000000000000004C
:10516000000000000000000000000000000000003F
:1051700000000000E007E007000000000000000061
:10518000000000000000000000000000000000001F
:10519000000000000000000000000000000000000F
:1051A0000000000000000000000000000000C0003F
:1051B000C000000000000000000000000000000C23
:1051C000000C000600060006000300030003800335
:1051D000800180018001C000C000C000600060004C
:1051E0000000000000000000000000000000E003DC
:1051F000F007380E180C0C180C180C180C180C189A
:105200000C180C180C180C18180C380EF007E003CA
:10521000000000000000000000000000000000018D
:105220008001C001F00198018801800180018001A6
:105230008001800180018001800180018001800166
:105240000000000000000000000000000000E0037B
:10525000F80F180C0C180C1800180018000C000699
:1052600000038001C000600030001800FC1FFC1F1C
:105270000000000000000000000000000000E0014D
:10528000F807180E0C0C0C0C000C0006C003C0072D
:10529000000C001800180C180C18180CF807E00384
:1052A0000000000000000000000000000000000CF2
:1052B000000E000F000F800DC00C600C600C300C55
:1052C000180C0C0CFC3FFC3F000C000C000C000CFC
:1052D0000000000000000000000000000000F80FC7
:1052E000F80F180018000C00EC03FC071C0E001C43
:1052F0000018001800180C181C0C180EF807E00312
:105300000000000000000000000000000000C007D6
:10531000F00F381C181818000C00CC03EC0F3C0ED2
:105320001C1C0C180C180C18181C380EF007E00385
:105330000000000000000000000000000000FC1F52
:10534000FC1F000C00060006000380038001C00162
:10535000C000E000600060007000300030003000ED
:105360000000000000000000000000000000E0035A
:10537000F007380E180C180C180C3806F007F00758
:10538000180C0C180C180C180C18380CF80FE0033B
:105390000000000000000000000000000000E0032A
:1053A000F007380E1C0C0C180C180C181C1C381E9E
:1053B000F81BE0190018000C000C1C0EF807F00197
:1053C00000000000000000000000000000000000DD
:1053D00000000000000000008001800100000000CB
:1053E00000000000000000000000000080018001BB
:1053F00000000000000000000000000000000000AD
:10540000000000000000000080018001000000009A
:10541000000000000000000000000000800180018A
:1054200000010001800000000000000000000000FA
:105430000000000000000000000000000010001C40
:10544000800FE003F8001800F800E003800F001C54
:10545000001000000000000000000000000000003C
:10546000000000000000000000000000F81F000025
:1054700000000000F81F0000000000000000000015
:10548000000000000000000000000000000000001C
:1054900000000000000000000000000008003800CC
:1054A000F001C007001F0018001FC007F0013800FE
:1054B0000800000000000000000000000000E00301
:1054C000F80F180C0C180C180018000C000600033C
:1054D0008001C000C000C00000000000C000C0008B
:1054E00000000000000000000000000000000000BC
:1054F000E00718180420C229224A1144094409442B
:10550000094409221113E20C024004201818E00794
:105510000000000000000000000000000000800308
:105520008003C006C006C006600C600C301830183E
:105530003018F83FF83F1C700C600C6006C006C0C5
:105540000000000000000000000000000000FC035C
:10555000FC0F0C0C0C180C180C180C0CFC07FC0F96
:105560000C180C300C300C300C300C18FC1FFC07E5
:105570000000000000000000000000000000C00764
:10558000F01F38381C300C7006600600060006005C
:1055900006000600060006600C701C30F01FE007D5
:1055A0000000000000000000000000000000FE03FA
:1055B000FE0F060E061806180630063006300630B6
:1055C00006300630063006180618060EFE0FFE03DB
:1055D0000000000000000000000000000000FC3F90
:1055E000FC3F0C000C000C000C000C00FC1FFC1F0E
:1055F0000C000C000C000C000C000C00FC3FFC3FED
:105600000000000000000000000000000000F83F63
:10561000F83F18001800180018001800F81FF81FAD
:1056200018001800180018001800180018001800BA
:105630000000000000000000000000000000E00F7B
:10564000F83F3C780E6006E007C00300030003FE4D
:1056500003FE03C007C006C00EC03CF0F83FE00FD9
:1056600000000000000000000000000000000C30FE
:105670000C300C300C300C300C300C30FC3FFC3F4C
:105680000C300C300C300C300C300C300C300C303A
:105690000000000000000000000000000000800189
:1056A00080018001800180018001800180018001F2
:1056B00080018001800180018001800180018001E2
:1056C00000000000000000000000000000000006D4
:1056D000000600060006000600060006000600069A
:1056E000000600060006180618063807F003E00159
:1056F0000000000000000000000000000000063074
:105700000618060C060606038601C600660076002B
:10571000DE008E0106030606060C0618063006603B
:105720000000000000000000000000000000180061
:1057300018001800180018001800180018001800A9
:10574000180018001800180018001800F81FF81F9B
:1057500000000000000000000000000000000EE05B
:105760001EF01EF01EF036D836D836D836D866CCA5
:1057700066CC66CCC6C6C6C6C6C6C6C686C386C303
:1057800000000000000000000000000000000C30DD
:105790001C303C303C306C306C30CC30CC308C31F8
:1057A0000C330C330C360C360C3C0C3C0C380C30E7
:1057B0000000000000000000000000000000E00702
:1057C000F81F1C380E70066003C003C003C003C07E
:1057D00003C003C003C006600E701C38F81FE0074A
:1057E0000000000000000000000000000000FC0FAE
:1057F000FC1F0C380C300C300C300C300C18FC1F1B
:10580000FC070C000C000C000C000C000C000C0041
:105810000000000000000000000000000000E007A1
:10582000F81F1C380E70066003E003C003C003C0FD
:1058300003C003C007E006630E3F1C3CF83FE0F7DF
:1058400000C0000000000000000000000000FE0F8B
:10585000FE1F06380630063006300638FE1FFE07EB
:1058600006030606060C0618061806300630066003
:105870000000000000000000000000000000E00345
:10588000F80F1C0C0C180C180C001C00F803E00F8F
:10589000001E0038063006300E301C1CF80FE007E2
:1058A0000000000000000000000000000000FE7F7B
:1058B000FE7F8001800180018001800180018001E4
:1058C00080018001800180018001800180018001D0
:1058D00000000000000000000000000000000C308C
:1058E0000C300C300C300C300C300C300C300C30D8
:1058F0000C300C300C300C300C301818F81FE0074E
:105900000000000000000000000000000000036034
:105910000630063006300C180C180C18180C180C31
:10592000380E30063006700760036003C001C00106
:105930000000000000000000000000000000036004
:10594000C361C361C36166336633663366336633EE
:1059500066336C1B6C1B6C1B2C1A3C1E380E380EED
:1059600000000000000000000000000000000FE048
:105970000C7018303018700C600EC0078003800364
:10598000C003E006700C301C18180C300E6007E0E5
:10599000000000000000000000000000000003C044
:1059A00006600C301C383818300C6006E007C00365
:1059B00080018001800180018001800180018001DF
:1059C0000000000000000000000000000000FC7F5C
:1059D000FC7F006000300018000C0006000380010E
:1059E000C0006000300018000C000600FE7FFE7F43
:1059F0000000000000000000000000000000E003C4
:105A0000E003600060006000600060006000600013
:105A10006000600060006000600060006000600086
:105A2000600060006000E003E00300000000300060
:105A30003000600060006000C000C000C000C00115
:105A400080018001800100030003000300060006BE
:105A50000000000000000000000000000000E00363
:105A6000E00300030003000300030003000300033E
:105A7000000300030003000300030003000300030E
:105A8000000300030003E003E00300000000000047
:105A9000C001C00160036003600330063006180CCB
:105AA000180C0000000000000000000000000000D2
:105AB00000000000000000000000000000000000E6
:105AC00000000000000000000000000000000000D6
:105AD0000000000000000000000000000000FFFFC8
